:100000000C9462000C948A000C948A000C948A0070
:100010000C948A000C948A000C948A000C948A0038
:100020000C948A000C948A000C948A000C948A0028
:100030000C948A000C948A000C948A000C948A0018
:100040000C9462030C948A000C94D2030C94AC03BD
:100050000C948A000C948A000C948A000C948A00F8
:100060000C948A000C948A000000000023002600F3
:10007000290000000008000201000003040700003E
:1000800000000000000000000000250028002B00F8
:1000900000000000240027002A00040404040404D3
:1000A0000404020202020202030303030303010227
:1000B00004081020408001020408102001020408F6
:1000C0001020380511241FBECFEFD8E0DEBFCDBF12
:1000D00022E0A2E6B1E001C01D92AE30B207E1F726
:1000E00011E0A0E0B1E0E6E9FFE002C005900D926A
:1000F000A236B107D9F710E0C2E6D0E004C02197DC
:10010000FE010E94D105C136D107C9F70E9404043F
:100110000C94C9070C940000CF93DF9390E0FC018E
:10012000E255FF4F249186569F4FFC01849188230E
:10013000C1F090E0880F991FFC01E057FF4FC59177
:10014000D491FC01EA57FF4FA591B4919FB7F89461
:100150008881E22FE0958E2388838C91E823EC93AD
:100160009FBFDF91CF91089590E0FC01EE58FF4FC3
:100170002491FC01E255FF4F3491FC01E656FF4FFC
:10018000E491EE23C1F1222339F02330E9F090F419
:10019000213001F1223011F1F0E0EE0FFF1FE8599C
:1001A000FF4FA591B491EC91E32381E090E029F514
:1001B00080E008952730A9F02830C9F0243061F795
:1001C000809180008F7D03C0809180008F77809325
:1001D0008000E2CF84B58F7784BDDECF84B58F7D7C
:1001E000FBCF8091B0008F778093B000D5CF809106
:1001F000B0008F7DF9CF80E090E008953FB7F8948C
:100200008091690190916A01A0916B01B0916C019C
:1002100026B5A89B05C02F3F19F00196A11DB11D61
:100220003FBFBA2FA92F982F8827BC01CD01620F9D
:10023000711D811D911D42E0660F771F881F991F58
:100240004A95D1F70895AF92BF92CF92DF92EF9285
:10025000FF920F931F93CF93DF936C017B018B0170
:10026000040F151FEB015E01AE18BF08C017D107C0
:1002700059F06991D601ED91FC910190F081E02D4A
:10028000C6010995892B79F7C501DF91CF911F919F
:100290000F91FF90EF90DF90CF90BF90AF900895B7
:1002A000FC01538D448D252F30E0842F90E0821B7C
:1002B000930B541710F0CF96089501970895FC0101
:1002C000918D828D981761F0A28DAE0FBF2FB11D59
:1002D0005D968C91928D9F5F9F73928F90E00895B1
:1002E0008FEF9FEF0895FC01918D828D981731F06B
:1002F000828DE80FF11D858D90E008958FEF9FEFBF
:100300000895FC01918D228D892F90E0805C9F4F94
:10031000821B91098F73992708958DE691E00E94C1
:10032000810121E0892B09F420E0822F089580E0EB
:1003300090E0892B29F00E948D0181110C9400001E
:100340000895FC01A48DA80FB92FB11DA35ABF4F6A
:100350002C91848D90E001968F739927848FA689C4
:10036000B7892C93A089B1898C91837080648C9318
:10037000938D848D981306C00288F389E02D8081C7
:100380008F7D80830895EF92FF920F931F93CF93F9
:10039000DF93EC0181E0888F9B8D8C8D98131AC0C0
:1003A000E889F989808185FF15C09FB7F894EE89A7
:1003B000FF896083E889F989808183708064808304
:1003C0009FBF81E090E0DF91CF911F910F91FF904F
:1003D000EF900895F62E0B8D10E00F5F1F4F0F73F7
:1003E0001127E02E8C8D8E110CC00FB607FCFACFB2
:1003F000E889F989808185FFF5CFCE010E94A101AE
:10040000F1CFEB8DEC0FFD2FF11DE35AFF4FF08282
:100410009FB7F8940B8FEA89FB8980818062CFCFE8
:10042000CF93DF93EC01888D8823B9F0AA89BB892B
:10043000E889F9898C9185FD03C0808186FD0DC016
:100440000FB607FCF7CF8C9185FFF2CF808185FF37
:10045000EDCFCE010E94A101E9CFDF91CF910895A8
:100460008F929F92AF92BF92CF92DF92EF92FF92C4
:10047000CF93C62F0E94B4007C018C2F0E94B40041
:10048000EF2891F5019781F50E94FE004B015C0178
:1004900084E6C82ED12CE12CF12C0E94FE006819B4
:1004A00079098A099B09683E734081059105A8F383
:1004B00021E0C21AD108E108F10888EE880E83E035
:1004C000981EA11CB11CC114D104E104F10429F748
:1004D0008C2F0E94B4008130910531F0892B79F482
:1004E0008C2F0E94B400FACF80E0CF91FF90EF9064
:1004F000DF90CF90BF90AF909F908F90089581E054
:10050000F4CF42E050E068E171E08DE691E00C94B8
:1005100023010F931F93CF93DF93EC01888199817F
:10052000009759F02A813B812617370730F081E088
:10053000DF91CF911F910F9108958B016F5F7F4FD6
:100540000E94FC06009759F0998388831B830A83D5
:100550002C813D81232B59F7FC011082E8CF80E0EC
:10056000E7CFEF92FF920F931F93CF93DF93611525
:10057000710541F480E0DF91CF911F910F91FF90C1
:10058000EF90089541155105B1F07B01EC010C810C
:100590001D81040F151FB8010E948902882351F3A1
:1005A000288139818C819D81B701820F931F0E9420
:1005B000C2071D830C8381E0DECFCF93DF93EC0174
:1005C00088819981009711F00E9473061982188220
:1005D0001D821C821B821A82DF91CF910895CF93D6
:1005E000DF93EC0141E050E06CE271E00E94B10267
:1005F000811103C0CE010E94DD02CE01DF91CF91B7
:100600000895EF92FF920F931F93CF93DF93EC0126
:100610007B018A01BA010E94890281110BC0CE01BF
:100620000E94DD02CE01DF91CF911F910F91FF90CB
:10063000EF9008951D830C83B701888199810E94F2
:10064000C207F0CFEF92FF920F931F93CF93DF93E8
:10065000CDB7DEB762970FB6F894DEBF0FBECDBF41
:100660008C01CB01F8011182108213821282158253
:1006700014824AE09E012F5F3F4F7901B9010E9429
:100680006505F70101900020E9F73197AF014E1998
:100690005F09B701C8010E94010362960FB6F89482
:1006A000DEBF0FBECDBFDF91CF911F910F91FF90A5
:1006B000EF900895FC0180819181009711F00C94D6
:1006C000730608951F920F920FB60F9211242F9365
:1006D0003F938F939F93AF93BF93809165019091C8
:1006E0006601A0916701B09168013091640123E037
:1006F000230F2D3758F50196A11DB11D20936401DC
:100700008093650190936601A0936701B09368019F
:100710008091690190916A01A0916B01B0916C0187
:100720000196A11DB11D8093690190936A01A09368
:100730006B01B0936C01BF91AF919F918F913F91ED
:100740002F910F900FBE0F901F90189526E8230F42
:100750000296A11DB11DD2CF1F920F920FB60F921C
:1007600011242F933F934F935F936F937F938F93B6
:100770009F93AF93BF93EF93FF938DE691E00E9419
:10078000A101FF91EF91BF91AF919F918F917F91C7
:100790006F915F914F913F912F910F900FBE0F90EE
:1007A0001F9018951F920F920FB60F9211242F933E
:1007B0008F939F93EF93FF93E0917D01F0917E01E2
:1007C0008081E0918301F091840182FD1BC09081C2
:1007D000809186018F5F8F7320918701821741F08E
:1007E000E0918601F0E0E359FE4F958F80938601FA
:1007F000FF91EF919F918F912F910F900FBE0F90CE
:100800001F9018958081F4CFCF93DF93CDB7DEB7DB
:100810002C970FB6F894DEBF0FBECDBF789484B589
:10082000826084BD84B5816084BD85B5826085BDEC
:1008300085B5816085BD80916E00816080936E007A
:10084000109281008091810082608093810080916C
:10085000810081608093810080918000816080931D
:1008600080008091B10084608093B1008091B000DD
:1008700081608093B00080917A00846080937A00D8
:1008800080917A00826080937A0080917A00816002
:1008900080937A0080917A00806880937A00109229
:1008A000C1008DE00E948C008AE00E948C00E091E3
:1008B0007D01F0917E0182E08083E0917901F091E9
:1008C0007A011082E0917B01F0917C018FEC8083B2
:1008D00010928501E0918101F091820186E0808390
:1008E000E0917F01F0918001808180618083E091BF
:1008F0007F01F0918001808188608083E0917F0199
:10090000F0918001808180688083E0917F01F09187
:10091000800180818F7D808342E150E06BE171E056
:100920008DE691E00E9423010E94810200E010E028
:100930006AE070E08DE090E00E943002882309F4C4
:1009400041C060916201709163016F5F7F4F70934E
:10095000630160936201CE0107960E9422031A820E
:1009600019821C821B821E821D8248E150E06EE2C9
:1009700071E0CE0101960E9401034B855C856F8179
:100980007885CE0101960E94B102811104C0CE018A
:1009900001960E94DD02CE0101960E94EF02FC0149
:1009A00044815581608171818DE691E00E9423012F
:1009B0000E948102CE0101960E945A03CE01079641
:1009C0000E945A036DE070E08AE090E00E943002DD
:1009D000882309F441C06091620170916301615004
:1009E00071097093630160936201CE0107960E94C2
:1009F00022031A8219821C821B821E821D8249E1F7
:100A000050E067E471E0CE0101960E9401034B853E
:100A10005C856F817885CE0101960E94B1028111BB
:100A200004C0CE0101960E94DD02CE0101960E9413
:100A3000EF02FC0144815581608171818DE691E076
:100A40000E9423010E948102CE0101960E945A0356
:100A5000CE0107960E945A030115110509F468CFCB
:100A60000E948D01882309F463CF0E94000060CFAB
:100A7000EDE6F1E01382128288EE93E0A0E0B0E0B0
:100A800084839583A683B7838AE091E091838083F2
:100A900085EC90E09587848784EC90E09787868743
:100AA00080EC90E0918B808B81EC90E0938B828B3B
:100AB00082EC90E0958B848B86EC90E0978B868B14
:100AC000118E128E138E148E0895BB274A3031F486
:100AD000992322F4BDE2909581959F4F0C94710566
:100AE000BB27FB015527AA27880F991FAA1FA41708
:100AF00010F0A41B83955051B9F7A05DAA3308F0FC
:100B0000A95DA193009779F7B111B1931192CB012F
:100B10000C948A05DC01FC01672F71917723E1F7C2
:100B2000329704C07C916D9370836291AE17BF07BA
:100B3000C8F308952F923F924F925F926F927F92E7
:100B40008F929F92AF92BF92CF92DF92EF92FF92DD
:100B50000F931F93CF93DF93CDB7DEB7CA1BDB0B89
:100B60000FB6F894DEBF0FBECDBF09942A8839882E
:100B700048885F846E847D848C849B84AA84B98435
:100B8000C884DF80EE80FD800C811B81AA81B98141
:100B9000CE0FD11D0FB6F894DEBF0FBECDBFED0155
:100BA0000895EE0FFF1F0590F491E02D09940F9327
:100BB0001F93CF93DF938230910510F482E090E091
:100BC000E0910C02F0910D0230E020E0B0E0A0E0F6
:100BD000309799F42115310509F44AC0281B390BC7
:100BE00024303105D8F58A819B816115710589F121
:100BF000FB0193838283FE0111C0408151810281F8
:100C0000138148175907E0F04817590799F41097CE
:100C100061F012960C93129713961C933296CF01A3
:100C2000DF91CF911F910F91089500930C021093C3
:100C30000D02F4CF2115310551F04217530738F05A
:100C4000A901DB019A01BD01DF01F801C1CFEF016C
:100C5000F9CF90930D0280930C02CDCFFE01E20FED
:100C6000F31F819391932250310939832883D7CF81
:100C700020910A0230910B02232B41F420910201B2
:100C80003091030130930B0220930A02209100015E
:100C9000309101012115310541F42DB73EB7409146
:100CA000040150910501241B350BE0910A02F091DB
:100CB0000B02E217F307A0F42E1B3F0B281739078E
:100CC00078F0AC014E5F5F4F2417350748F04E0FA8
:100CD0005F1F50930B0240930A02819391939FCF21
:100CE000F0E0E0E09CCFCF93DF930097E9F0FC01C8
:100CF000329713821282A0910C02B0910D02ED0185
:100D000030E020E01097A1F420813181820F931F01
:100D100020910A0230910B022817390709F061C0AF
:100D2000F0930B02E0930A02DF91CF910895EA015C
:100D3000CE17DF07E8F54A815B819E014115510519
:100D4000B1F7E901FB83EA8349915991C40FD51F9B
:100D5000EC17FD0761F4808191810296840F951F45
:100D6000E90199838883828193819B838A83F0E060
:100D7000E0E012968D919C9113970097B9F52D9113
:100D80003C911197CD010296820F931F20910A0288
:100D900030910B022817390739F6309751F5109228
:100DA0000D0210920C02B0930B02A0930A02BCCF6A
:100DB000D383C28340815181840F951FC817D907FF
:100DC00061F44E5F5F4F88819981480F591F5183AD
:100DD00040838A819B81938382832115310509F0A9
:100DE000B0CFF0930D02E0930C029ECFFD01DC0129
:100DF000C0CF13821282D7CFB0E0A0E0E2E0F7E0EC
:100E00000C949C058C01009751F4CB010E94D705EE
:100E10008C01C801CDB7DEB7E0E10C94B805FC0148
:100E2000E60FF71F9C0122503109E217F30708F47F
:100E30009DC0D901CD91DC911197C617D70798F0C5
:100E4000C530D10530F3CE0104978617970708F314
:100E5000C61BD70B2297C193D1936D937C93CF017F
:100E60000E947306D6CF5B01AC1ABD0A4C018C0EF2
:100E70009D1EA0910C02B0910D02512C412CF12C21
:100E8000E12C109731F580910A0290910B028815A0
:100E9000990509F05CC04616570608F058C08091C5
:100EA000000190910101009741F48DB79EB74091E8
:100EB000040150910501841B950BE817F90708F010
:100EC00055C0F0930B02E0930A02F901718360832D
:100ED000A0CF8D919C91119712966C9012971396BA
:100EE0007C901397A815B90559F56C0142E0C40E22
:100EF000D11CCA14DB0420F1AC014A195B09DA01E8
:100F00001296159780F06282738251834083D901D3
:100F10006D937C93E114F10471F0D7011396FC9367
:100F2000EE93129776CF22968C0F9D1FF901918335
:100F30008083F301EFCFF0930D02E0930C0269CFB1
:100F40004816590608F42C017D01D3019ACFCB0134
:100F50000E94D7057C01009749F0AE01B8010E94BC
:100F6000B907C8010E947306870153CF10E000E063
:100F700050CFFB01DC0102C001900D924150504066
:100F8000D8F70895FB01DC0101900D920020E1F7F4
:060F90000895F894FFCF64
:100F960000000E02800000000000C3012301500182
:100FA600100281015F0173010D0A007B22616374E7
:100FB600696F6E223A225354415254227D007B229D
:100FC600616374696F6E223A22494E222C20226395
:100FD6006F756E74223A007B22616374696F6E22AC
:100FE6003A224F5554222C2022636F756E74223A92
:020FF6000000F9
:00000001FF
